{
  "_format": "hh-sol-artifact-1",
  "contractName": "EthTokenExchange",
  "sourceName": "contracts/EthTokenExchange.sol",
  "abi": [
    {
      "inputs": [],
      "stateMutability": "nonpayable",
      "type": "constructor"
    },
    {
      "inputs": [],
      "name": "eth_token",
      "outputs": [
        {
          "internalType": "contract ERC20",
          "name": "",
          "type": "address"
        }
      ],
      "stateMutability": "view",
      "type": "function"
    },
    {
      "inputs": [
        {
          "internalType": "uint256",
          "name": "_amount",
          "type": "uint256"
        }
      ],
      "name": "token_to_ETH",
      "outputs": [],
      "stateMutability": "nonpayable",
      "type": "function"
    },
    {
      "stateMutability": "payable",
      "type": "receive"
    }
  ],
  "bytecode": "0x608060405234801561001057600080fd5b506b033b2e3c9fd0803ce8000000600060405161002c906100bd565b918252608060208301819052600e908301526d22ba3432b932bab6902a37b5b2b760911b60a083015260c0604083018190526003908301526208aa8960eb1b60e08301521515606082015261010001604051809103906000f080158015610097573d6000803e3d6000fd5b50600080546001600160a01b0319166001600160a01b03929092169190911790556100ca565b610ea78061036883390190565b61028f806100d96000396000f3fe60806040526004361061002d5760003560e01c806325345e64146100d3578063c19a8d9a1461012957600080fd5b366100ce576000546040517fa9059cbb00000000000000000000000000000000000000000000000000000000815233600482015234602482015273ffffffffffffffffffffffffffffffffffffffff9091169063a9059cbb906044016020604051808303816000875af11580156100a8573d6000803e3d6000fd5b505050506040513d601f19601f820116820180604052508101906100cc9190610217565b005b600080fd5b3480156100df57600080fd5b506000546101009073ffffffffffffffffffffffffffffffffffffffff1681565b60405173ffffffffffffffffffffffffffffffffffffffff909116815260200160405180910390f35b34801561013557600080fd5b506100cc610144366004610240565b6000546040517f23b872dd0000000000000000000000000000000000000000000000000000000081523360048201523060248201526044810183905273ffffffffffffffffffffffffffffffffffffffff909116906323b872dd906064016020604051808303816000875af11580156101c1573d6000803e3d6000fd5b505050506040513d601f19601f820116820180604052508101906101e59190610217565b50604051339082156108fc029083906000818181858888f19350505050158015610213573d6000803e3d6000fd5b5050565b60006020828403121561022957600080fd5b8151801515811461023957600080fd5b9392505050565b60006020828403121561025257600080fd5b503591905056fea26469706673582212208e4987e28bf4204fb9c3950828d84fe50dc6c6ecbc49423a15d22acaafc9bfcb64736f6c6343000818003360806040526004805460ff191660121790553480156200001e57600080fd5b5060405162000ea738038062000ea783398101604081905262000041916200028e565b83838360008311620000ae5760405162461bcd60e51b815260206004820152602b60248201527f496e697469616c20737570706c792073686f756c64206265206120706f73697460448201526a34bb329034b73a32b3b2b960a91b60648201526084015b60405180910390fd5b6000825111620001015760405162461bcd60e51b815260206004820152601860248201527f4e616d652073686f756c64206e6f7420626520656d70747900000000000000006044820152606401620000a5565b6000815111620001545760405162461bcd60e51b815260206004820152601a60248201527f53796d626f6c2073686f756c64206e6f7420626520656d7074790000000000006044820152606401620000a5565b60008790556003620001678782620003ac565b506005620001768682620003ac565b5083156200019657600680546001600160a01b03191633179055620001b9565b600680546001600160a01b03191690556000805433825260016020526040909120555b5050505050505062000478565b634e487b7160e01b600052604160045260246000fd5b600082601f830112620001ee57600080fd5b81516001600160401b03808211156200020b576200020b620001c6565b604051601f8301601f19908116603f01168101908282118183101715620002365762000236620001c6565b81604052838152602092508660208588010111156200025457600080fd5b600091505b8382101562000278578582018301518183018401529082019062000259565b6000602085830101528094505050505092915050565b60008060008060808587031215620002a557600080fd5b845160208601519094506001600160401b0380821115620002c557600080fd5b620002d388838901620001dc565b94506040870151915080821115620002ea57600080fd5b50620002f987828801620001dc565b925050606085015180151581146200031057600080fd5b939692955090935050565b600181811c908216806200033057607f821691505b6020821081036200035157634e487b7160e01b600052602260045260246000fd5b50919050565b601f821115620003a7576000816000526020600020601f850160051c81016020861015620003825750805b601f850160051c820191505b81811015620003a3578281556001016200038e565b5050505b505050565b81516001600160401b03811115620003c857620003c8620001c6565b620003e081620003d984546200031b565b8462000357565b602080601f831160018114620004185760008415620003ff5750858301515b600019600386901b1c1916600185901b178555620003a3565b600085815260208120601f198616915b82811015620004495788860151825594840194600190910190840162000428565b5085821015620004685787850151600019600388901b60f8161c191681555b5050505050600190811b01905550565b610a1f80620004886000396000f3fe608060405234801561001057600080fd5b50600436106100d45760003560e01c80635f459e9d11610081578063a9059cbb1161005b578063a9059cbb146101b7578063dd62ed3e146101ca578063f887ea401461020357600080fd5b80635f459e9d1461017157806370a082311461018657806395d89b41146101af57600080fd5b80631b0d0bdb116100b25780631b0d0bdb1461012c57806323b872dd1461013f578063313ce5671461015257600080fd5b806306fdde03146100d9578063095ea7b3146100f757806318160ddd1461011a575b600080fd5b6100e161022e565b6040516100ee919061084d565b60405180910390f35b61010a6101053660046108b8565b6102bc565b60405190151581526020016100ee565b6000545b6040519081526020016100ee565b61010a61013a3660046108e2565b610329565b61010a61014d3660046108e2565b61045e565b60045461015f9060ff1681565b60405160ff90911681526020016100ee565b61018461017f36600461091e565b610649565b005b61011e61019436600461091e565b6001600160a01b031660009081526001602052604090205490565b6100e1610730565b61010a6101c53660046108b8565b61073d565b61011e6101d8366004610940565b6001600160a01b03918216600090815260026020908152604080832093909416825291909152205490565b600654610216906001600160a01b031681565b6040516001600160a01b0390911681526020016100ee565b6003805461023b90610973565b80601f016020809104026020016040519081016040528092919081815260200182805461026790610973565b80156102b45780601f10610289576101008083540402835291602001916102b4565b820191906000526020600020905b81548152906001019060200180831161029757829003601f168201915b505050505081565b3360008181526002602090815260408083206001600160a01b038716808552925280832085905551919290917f8c5be1e5ebec7d5bd14f71427d1e84f3dd0314c0f7b2291e5b200ac8c7c3b925906103179086815260200190565b60405180910390a35060015b92915050565b600654604080517f4f6e6c792074686520726f757465722063616e2063616c6c20746869732066756020820152663731ba34b7b70560c91b918101919091526702937baba32b91d160c51b6047820152606082811b6bffffffffffffffffffffffff19908116604f84015267521b0b63632b91d160bd1b6063840152339182901b16606c8301526000926001600160a01b03161490608001604051602081830303815290604052906103f75760405162461bcd60e51b81526004016103ee919061084d565b60405180910390fd5b506001600160a01b0384811660008181526002602090815260408083209488168084529482529182902086905590518581527f8c5be1e5ebec7d5bd14f71427d1e84f3dd0314c0f7b2291e5b200ac8c7c3b925910160405180910390a35060019392505050565b6001600160a01b038316600090815260016020526040812054849083908111156104ca5760405162461bcd60e51b815260206004820152601360248201527f496e73756666696369656e742066756e6473210000000000000000000000000060448201526064016103ee565b6001600160a01b03861660009081526002602090815260408083203380855292529091205487919086908111156105435760405162461bcd60e51b815260206004820152601760248201527f496e73756666696369656e7420616c6c6f77616e63652100000000000000000060448201526064016103ee565b6001600160a01b0389166000908152600160205260409020546105679088906109c3565b6001600160a01b038a16600090815260016020908152604080832093909355600281528282203383529052205461059f9088906109c3565b6001600160a01b03808b166000908152600260209081526040808320338452825280832094909455918b168152600190915220546105de9088906109d6565b6001600160a01b03808a1660008181526001602052604090819020939093559151908b16907fddf252ad1be2c89b69c2b068fc378daa952ba7f163c4a11628f55a4df523b3ef90610632908b815260200190565b60405180910390a350600198975050505050505050565b600654604051336001600160a01b03909216828114926106e5926020017f4f6e6c792074686520726f757465722063616e2063616c6c20746869732066758152663731ba34b7b70560c91b60208201526702937baba32b91d160c51b6027820152606092831b6bffffffffffffffffffffffff19908116602f83015267521b0b63632b91d160bd1b604383015291831b909116604c8201520190565b604051602081830303815290604052906107125760405162461bcd60e51b81526004016103ee919061084d565b50600080546001600160a01b03909216815260016020526040902055565b6005805461023b90610973565b3360008181526001602052604081205490919083908111156107a15760405162461bcd60e51b815260206004820152601360248201527f496e73756666696369656e742066756e6473210000000000000000000000000060448201526064016103ee565b336000908152600160205260409020546107bc9085906109c3565b33600090815260016020526040808220929092556001600160a01b038716815220546107e99085906109d6565b6001600160a01b0386166000818152600160205260409081902092909255905133907fddf252ad1be2c89b69c2b068fc378daa952ba7f163c4a11628f55a4df523b3ef9061083a9088815260200190565b60405180910390a3506001949350505050565b60006020808352835180602085015260005b8181101561087b5785810183015185820160400152820161085f565b506000604082860101526040601f19601f8301168501019250505092915050565b80356001600160a01b03811681146108b357600080fd5b919050565b600080604083850312156108cb57600080fd5b6108d48361089c565b946020939093013593505050565b6000806000606084860312156108f757600080fd5b6109008461089c565b925061090e6020850161089c565b9150604084013590509250925092565b60006020828403121561093057600080fd5b6109398261089c565b9392505050565b6000806040838503121561095357600080fd5b61095c8361089c565b915061096a6020840161089c565b90509250929050565b600181811c9082168061098757607f821691505b6020821081036109a757634e487b7160e01b600052602260045260246000fd5b50919050565b634e487b7160e01b600052601160045260246000fd5b81810381811115610323576103236109ad565b80820180821115610323576103236109ad56fea26469706673582212209c76792903f7a315360e8111e9e4a7831cc7dd2db7d5b8dc35fec1e41ad9b6d364736f6c63430008180033",
  "linkReferences": {},
  "deployedLinkReferences": {}
}