{
  "_format": "hh-sol-artifact-1",
  "contractName": "LP",
  "sourceName": "contracts/LP.sol",
  "abi": [
    {
      "inputs": [
        {
          "internalType": "contract IERC20",
          "name": "_tokenA",
          "type": "address"
        },
        {
          "internalType": "contract IERC20",
          "name": "_tokenB",
          "type": "address"
        }
      ],
      "stateMutability": "nonpayable",
      "type": "constructor"
    },
    {
      "anonymous": false,
      "inputs": [
        {
          "indexed": true,
          "internalType": "address",
          "name": "tokenA",
          "type": "address"
        },
        {
          "indexed": true,
          "internalType": "address",
          "name": "tokenB",
          "type": "address"
        },
        {
          "indexed": false,
          "internalType": "uint256",
          "name": "amountA",
          "type": "uint256"
        },
        {
          "indexed": false,
          "internalType": "uint256",
          "name": "amountB",
          "type": "uint256"
        }
      ],
      "name": "AddedLiquidity",
      "type": "event"
    },
    {
      "anonymous": false,
      "inputs": [
        {
          "indexed": true,
          "internalType": "address",
          "name": "tokenA",
          "type": "address"
        },
        {
          "indexed": true,
          "internalType": "address",
          "name": "tokenB",
          "type": "address"
        },
        {
          "indexed": false,
          "internalType": "uint256",
          "name": "amountA",
          "type": "uint256"
        },
        {
          "indexed": false,
          "internalType": "uint256",
          "name": "amountB",
          "type": "uint256"
        }
      ],
      "name": "RemovedLiquidity",
      "type": "event"
    },
    {
      "anonymous": false,
      "inputs": [
        {
          "indexed": true,
          "internalType": "address",
          "name": "fromToken",
          "type": "address"
        },
        {
          "indexed": true,
          "internalType": "address",
          "name": "toToken",
          "type": "address"
        },
        {
          "indexed": false,
          "internalType": "uint256",
          "name": "amountIn",
          "type": "uint256"
        },
        {
          "indexed": false,
          "internalType": "uint256",
          "name": "amountOut",
          "type": "uint256"
        }
      ],
      "name": "Swapped",
      "type": "event"
    },
    {
      "inputs": [],
      "name": "DECIMAL_FACTOR",
      "outputs": [
        {
          "internalType": "uint256",
          "name": "",
          "type": "uint256"
        }
      ],
      "stateMutability": "view",
      "type": "function"
    },
    {
      "inputs": [
        {
          "internalType": "uint256",
          "name": "amountA",
          "type": "uint256"
        }
      ],
      "name": "addLiquidity",
      "outputs": [],
      "stateMutability": "nonpayable",
      "type": "function"
    },
    {
      "inputs": [
        {
          "internalType": "uint256",
          "name": "amountA",
          "type": "uint256"
        },
        {
          "internalType": "uint256",
          "name": "amountB",
          "type": "uint256"
        }
      ],
      "name": "firstAddLiquidity",
      "outputs": [],
      "stateMutability": "nonpayable",
      "type": "function"
    },
    {
      "inputs": [
        {
          "internalType": "uint256",
          "name": "amountA",
          "type": "uint256"
        }
      ],
      "name": "getAmountBNecesary",
      "outputs": [
        {
          "internalType": "uint256",
          "name": "",
          "type": "uint256"
        }
      ],
      "stateMutability": "view",
      "type": "function"
    },
    {
      "inputs": [
        {
          "internalType": "uint256",
          "name": "liquidityTokens",
          "type": "uint256"
        }
      ],
      "name": "getLiquidityEquivalent",
      "outputs": [
        {
          "internalType": "uint256",
          "name": "",
          "type": "uint256"
        },
        {
          "internalType": "uint256",
          "name": "",
          "type": "uint256"
        }
      ],
      "stateMutability": "view",
      "type": "function"
    },
    {
      "inputs": [
        {
          "internalType": "address",
          "name": "provider",
          "type": "address"
        }
      ],
      "name": "getLiquidityOfProvider",
      "outputs": [
        {
          "internalType": "uint256",
          "name": "",
          "type": "uint256"
        }
      ],
      "stateMutability": "view",
      "type": "function"
    },
    {
      "inputs": [],
      "name": "getMyLiquidity",
      "outputs": [
        {
          "internalType": "uint256",
          "name": "",
          "type": "uint256"
        }
      ],
      "stateMutability": "view",
      "type": "function"
    },
    {
      "inputs": [],
      "name": "getMyLiquidityEquivalent",
      "outputs": [
        {
          "internalType": "uint256",
          "name": "",
          "type": "uint256"
        },
        {
          "internalType": "uint256",
          "name": "",
          "type": "uint256"
        }
      ],
      "stateMutability": "view",
      "type": "function"
    },
    {
      "inputs": [
        {
          "internalType": "contract IERC20",
          "name": "fromToken",
          "type": "address"
        }
      ],
      "name": "getOtherToken",
      "outputs": [
        {
          "internalType": "contract IERC20",
          "name": "",
          "type": "address"
        }
      ],
      "stateMutability": "view",
      "type": "function"
    },
    {
      "inputs": [],
      "name": "getPrice",
      "outputs": [
        {
          "internalType": "uint256",
          "name": "",
          "type": "uint256"
        }
      ],
      "stateMutability": "view",
      "type": "function"
    },
    {
      "inputs": [
        {
          "internalType": "contract IERC20",
          "name": "fromToken",
          "type": "address"
        },
        {
          "internalType": "uint256",
          "name": "amountIn",
          "type": "uint256"
        }
      ],
      "name": "getReturn",
      "outputs": [
        {
          "internalType": "uint256",
          "name": "",
          "type": "uint256"
        }
      ],
      "stateMutability": "view",
      "type": "function"
    },
    {
      "inputs": [
        {
          "internalType": "address",
          "name": "",
          "type": "address"
        }
      ],
      "name": "lpTokens",
      "outputs": [
        {
          "internalType": "uint256",
          "name": "",
          "type": "uint256"
        }
      ],
      "stateMutability": "view",
      "type": "function"
    },
    {
      "inputs": [
        {
          "internalType": "uint256",
          "name": "liquidityTokens",
          "type": "uint256"
        }
      ],
      "name": "removeLiquidity",
      "outputs": [],
      "stateMutability": "nonpayable",
      "type": "function"
    },
    {
      "inputs": [],
      "name": "reserveA",
      "outputs": [
        {
          "internalType": "uint256",
          "name": "",
          "type": "uint256"
        }
      ],
      "stateMutability": "view",
      "type": "function"
    },
    {
      "inputs": [],
      "name": "reserveB",
      "outputs": [
        {
          "internalType": "uint256",
          "name": "",
          "type": "uint256"
        }
      ],
      "stateMutability": "view",
      "type": "function"
    },
    {
      "inputs": [
        {
          "internalType": "address",
          "name": "exchangerAddress",
          "type": "address"
        },
        {
          "internalType": "contract IERC20",
          "name": "fromToken",
          "type": "address"
        },
        {
          "internalType": "uint256",
          "name": "amountIn",
          "type": "uint256"
        }
      ],
      "name": "swap",
      "outputs": [
        {
          "internalType": "uint256",
          "name": "",
          "type": "uint256"
        }
      ],
      "stateMutability": "nonpayable",
      "type": "function"
    },
    {
      "inputs": [],
      "name": "tokenA",
      "outputs": [
        {
          "internalType": "contract IERC20",
          "name": "",
          "type": "address"
        }
      ],
      "stateMutability": "view",
      "type": "function"
    },
    {
      "inputs": [],
      "name": "tokenB",
      "outputs": [
        {
          "internalType": "contract IERC20",
          "name": "",
          "type": "address"
        }
      ],
      "stateMutability": "view",
      "type": "function"
    },
    {
      "inputs": [],
      "name": "totalLPTokens",
      "outputs": [
        {
          "internalType": "uint256",
          "name": "",
          "type": "uint256"
        }
      ],
      "stateMutability": "view",
      "type": "function"
    }
  ],
  "bytecode": "0x608060405234801561001057600080fd5b5060405161118238038061118283398101604081905261002f91610082565b600080546001600160a01b039384166001600160a01b031991821617825560018054939094169216919091179091556005556100b5565b80516001600160a01b038116811461007d57600080fd5b919050565b6000806040838503121561009557600080fd5b61009e83610066565b91506100ac60208401610066565b90509250929050565b6110be806100c46000396000f3fe608060405234801561001057600080fd5b50600436106101515760003560e01c806398d5fdca116100cd578063b70644b611610081578063dc5fa6c511610066578063dc5fa6c5146102c5578063df791e50146102ce578063ef6283d9146102e157600080fd5b8063b70644b61461029f578063b7be2498146102b257600080fd5b8063ae0a3ad0116100b2578063ae0a3ad014610259578063b17b658d1461026c578063b614c4771461028c57600080fd5b806398d5fdca1461023e5780639c8f9f231461024657600080fd5b8063382ee74a116101245780635f64b55b116101095780635f64b55b146101e55780638472325e146101f8578063923b511b1461022157600080fd5b8063382ee74a146101bd57806351c6590a146101d057600080fd5b80630fc63d101461015657806319e36f3b1461018657806333fdbbe51461019d57806337e3806a146101a8575b600080fd5b600054610169906001600160a01b031681565b6040516001600160a01b0390911681526020015b60405180910390f35b61018f60035481565b60405190815260200161017d565b61018f633b9aca0081565b3360009081526004602052604090205461018f565b6101696101cb366004610f2c565b6102ea565b6101e36101de366004610f49565b6103a1565b005b600154610169906001600160a01b031681565b61018f610206366004610f2c565b6001600160a01b031660009081526004602052604090205490565b610229610573565b6040805192835260208301919091520161017d565b61018f610596565b6101e3610254366004610f49565b6105bc565b6101e3610267366004610f62565b610850565b61018f61027a366004610f2c565b60046020526000908152604090205481565b61022961029a366004610f49565b610a30565b61018f6102ad366004610f49565b610a71565b61018f6102c0366004610f84565b610a94565b61018f60025481565b61018f6102dc366004610fb0565b610b70565b61018f60055481565b6000805482906001600160a01b038083169116148061031657506001546001600160a01b038281169116145b6103675760405162461bcd60e51b815260206004820152601560248201527f496e76616c696420746f6b656e2061646472657373000000000000000000000060448201526064015b60405180910390fd5b6000546001600160a01b0384811691161461038d576000546001600160a01b031661039a565b6001546001600160a01b03165b9392505050565b60006103ac82610a71565b6000546040516323b872dd60e01b8152336004820152306024820152604481018590529192506001600160a01b0316906323b872dd906064016020604051808303816000875af1158015610404573d6000803e3d6000fd5b505050506040513d601f19601f820116820180604052508101906104289190610ff1565b506001546040516323b872dd60e01b8152336004820152306024820152604481018390526001600160a01b03909116906323b872dd906064016020604051808303816000875af1158015610480573d6000803e3d6000fd5b505050506040513d601f19601f820116820180604052508101906104a49190610ff1565b5060006104b083610f01565b905082600260008282546104c49190611029565b9250508190555081600360008282546104dd9190611029565b90915550503360009081526004602052604081208054839290610501908490611029565b92505081905550806005600082825461051a9190611029565b909155505060015460005460408051868152602081018690526001600160a01b0393841693909216917fbd7b85fedbc1aa7803274a3777195d333498edd4cc00c3f998c9233b4aab0897910160405180910390a3505050565b33600090815260046020526040812054819061058e90610a30565b915091509091565b6000600254633b9aca006003546105ad919061103c565b6105b79190611053565b905090565b806000806105c983610a30565b9150915060025482111580156105e157506003548111155b61062d5760405162461bcd60e51b815260206004820152601660248201527f496e73756666696369656e74206c697175696469747900000000000000000000604482015260640161035e565b33600081815260046020526040902054859081111561068e5760405162461bcd60e51b815260206004820152601d60248201527f496e73756666696369656e74206c697175696469747920746f6b656e73000000604482015260640161035e565b60008061069a88610a30565b60005460405163a9059cbb60e01b8152336004820152602481018490529294509092506001600160a01b03169063a9059cbb906044016020604051808303816000875af11580156106ef573d6000803e3d6000fd5b505050506040513d601f19601f820116820180604052508101906107139190610ff1565b5060015460405163a9059cbb60e01b8152336004820152602481018390526001600160a01b039091169063a9059cbb906044016020604051808303816000875af1158015610765573d6000803e3d6000fd5b505050506040513d601f19601f820116820180604052508101906107899190610ff1565b50816002600082825461079c9190611075565b9250508190555080600360008282546107b59190611075565b9250508190555087600560008282546107ce9190611075565b909155505033600090815260046020526040812080548a92906107f2908490611075565b909155505060015460005460408051858152602081018590526001600160a01b0393841693909216917fdf820f8e0eaac6e7b59d9e7b24d666d41534675c38a6681103c8ba957e0f5374910160405180910390a35050505050505050565b6002541580156108605750600354155b6108ac5760405162461bcd60e51b815260206004820152601360248201527f416c726561647920696e697469616c697a656400000000000000000000000000604482015260640161035e565b6000546040516323b872dd60e01b8152336004820152306024820152604481018490526001600160a01b03909116906323b872dd906064016020604051808303816000875af1158015610903573d6000803e3d6000fd5b505050506040513d601f19601f820116820180604052508101906109279190610ff1565b506001546040516323b872dd60e01b8152336004820152306024820152604481018390526001600160a01b03909116906323b872dd906064016020604051808303816000875af115801561097f573d6000803e3d6000fd5b505050506040513d601f19601f820116820180604052508101906109a39190610ff1565b5060028290556003819055633b9aca006109bd828461103c565b6109c7919061103c565b600581905533600090815260046020908152604080832093909355600154915483518681529182018590526001600160a01b03928316939216917fbd7b85fedbc1aa7803274a3777195d333498edd4cc00c3f998c9233b4aab0897910160405180910390a35050565b60008060055460025484610a44919061103c565b610a4e9190611053565b600554600354610a5e908661103c565b610a689190611053565b91509150915091565b600060025460035483610a84919061103c565b610a8e9190611053565b92915050565b6000805483906001600160a01b0380831691161480610ac057506001546001600160a01b038281169116145b610b0c5760405162461bcd60e51b815260206004820152601560248201527f496e76616c696420746f6b656e20616464726573730000000000000000000000604482015260640161035e565b6000546001600160a01b0390811690851603610b4e5782600254610b309190611029565b600354610b3d908561103c565b610b479190611053565b9150610b69565b82600354610b5c9190611029565b600254610b3d908561103c565b5092915050565b600082826000610b808383610a94565b905060008111610bd25760405162461bcd60e51b815260206004820152601360248201527f496e76616c6964207377617020616d6f756e7400000000000000000000000000604482015260640161035e565b6000610bde8787610a94565b90506001600160a01b038816610bf2573397505b6000546001600160a01b0390811690881603610d85576000546040516323b872dd60e01b81526001600160a01b038a8116600483015230602483015260448201899052909116906323b872dd906064016020604051808303816000875af1158015610c61573d6000803e3d6000fd5b505050506040513d601f19601f82011682018060405250810190610c859190610ff1565b5060015460405163a9059cbb60e01b81526001600160a01b038a81166004830152602482018490529091169063a9059cbb906044016020604051808303816000875af1158015610cd9573d6000803e3d6000fd5b505050506040513d601f19601f82011682018060405250810190610cfd9190610ff1565b508560026000828254610d109190611029565b925050819055508060036000828254610d299190611075565b909155505060015460005460408051898152602081018590526001600160a01b0393841693909216917fa078c4190abe07940190effc1846be0ccf03ad6007bc9e93f9697d0b460befbb91015b60405180910390a39350610ef7565b6001546040516323b872dd60e01b81526001600160a01b038a8116600483015230602483015260448201899052909116906323b872dd906064016020604051808303816000875af1158015610dde573d6000803e3d6000fd5b505050506040513d601f19601f82011682018060405250810190610e029190610ff1565b5060005460405163a9059cbb60e01b81526001600160a01b038a81166004830152602482018490529091169063a9059cbb906044016020604051808303816000875af1158015610e56573d6000803e3d6000fd5b505050506040513d601f19601f82011682018060405250810190610e7a9190610ff1565b508560036000828254610e8d9190611029565b925050819055508060026000828254610ea69190611075565b909155505060005460015460408051898152602081018590526001600160a01b0393841693909216917fa078c4190abe07940190effc1846be0ccf03ad6007bc9e93f9697d0b460befbb9101610d76565b5050509392505050565b600060025482600554610a84919061103c565b6001600160a01b0381168114610f2957600080fd5b50565b600060208284031215610f3e57600080fd5b813561039a81610f14565b600060208284031215610f5b57600080fd5b5035919050565b60008060408385031215610f7557600080fd5b50508035926020909101359150565b60008060408385031215610f9757600080fd5b8235610fa281610f14565b946020939093013593505050565b600080600060608486031215610fc557600080fd5b8335610fd081610f14565b92506020840135610fe081610f14565b929592945050506040919091013590565b60006020828403121561100357600080fd5b8151801515811461039a57600080fd5b634e487b7160e01b600052601160045260246000fd5b80820180821115610a8e57610a8e611013565b8082028115828204841417610a8e57610a8e611013565b60008261107057634e487b7160e01b600052601260045260246000fd5b500490565b81810381811115610a8e57610a8e61101356fea2646970667358221220a71914437d3a05f9c85e7cfdbbf5380307b722b0eeec57652115d03217ef005664736f6c63430008180033",
  "linkReferences": {},
  "deployedLinkReferences": {}
}