{
  "_format": "hh-sol-artifact-1",
  "contractName": "LPRouter",
  "sourceName": "contracts/LPRouter.sol",
  "abi": [
    {
      "inputs": [
        {
          "internalType": "address",
          "name": "queueAddress",
          "type": "address"
        }
      ],
      "stateMutability": "nonpayable",
      "type": "constructor"
    },
    {
      "anonymous": false,
      "inputs": [
        {
          "indexed": true,
          "internalType": "address",
          "name": "lpAddress",
          "type": "address"
        },
        {
          "indexed": true,
          "internalType": "address",
          "name": "tokenA",
          "type": "address"
        },
        {
          "indexed": true,
          "internalType": "address",
          "name": "tokenB",
          "type": "address"
        }
      ],
      "name": "LPCreated",
      "type": "event"
    },
    {
      "anonymous": false,
      "inputs": [
        {
          "indexed": true,
          "internalType": "address",
          "name": "lpAddress",
          "type": "address"
        }
      ],
      "name": "LogLPAddress",
      "type": "event"
    },
    {
      "anonymous": false,
      "inputs": [
        {
          "indexed": true,
          "internalType": "address[]",
          "name": "path",
          "type": "address[]"
        }
      ],
      "name": "LogPath",
      "type": "event"
    },
    {
      "anonymous": false,
      "inputs": [
        {
          "indexed": true,
          "internalType": "string",
          "name": "tokenName",
          "type": "string"
        },
        {
          "indexed": true,
          "internalType": "string",
          "name": "tokenSymbol",
          "type": "string"
        },
        {
          "indexed": true,
          "internalType": "uint256",
          "name": "totalTokens",
          "type": "uint256"
        }
      ],
      "name": "LogToken",
      "type": "event"
    },
    {
      "anonymous": false,
      "inputs": [
        {
          "indexed": true,
          "internalType": "address",
          "name": "tokenAddress",
          "type": "address"
        }
      ],
      "name": "LogTokenAddress",
      "type": "event"
    },
    {
      "anonymous": false,
      "inputs": [
        {
          "indexed": true,
          "internalType": "address",
          "name": "tokenAddress",
          "type": "address"
        },
        {
          "indexed": true,
          "internalType": "string",
          "name": "name",
          "type": "string"
        },
        {
          "indexed": true,
          "internalType": "string",
          "name": "symbol",
          "type": "string"
        },
        {
          "indexed": false,
          "internalType": "uint256",
          "name": "totalTokens",
          "type": "uint256"
        }
      ],
      "name": "TokenCreated",
      "type": "event"
    },
    {
      "inputs": [
        {
          "internalType": "contract IERC20",
          "name": "_token",
          "type": "address"
        }
      ],
      "name": "addToken",
      "outputs": [],
      "stateMutability": "nonpayable",
      "type": "function"
    },
    {
      "inputs": [
        {
          "internalType": "contract IERC20",
          "name": "_tokenA",
          "type": "address"
        },
        {
          "internalType": "contract IERC20",
          "name": "_tokenB",
          "type": "address"
        }
      ],
      "name": "createLP",
      "outputs": [
        {
          "internalType": "contract LP",
          "name": "",
          "type": "address"
        }
      ],
      "stateMutability": "nonpayable",
      "type": "function"
    },
    {
      "inputs": [
        {
          "internalType": "uint256",
          "name": "totalTokens",
          "type": "uint256"
        },
        {
          "internalType": "string",
          "name": "_name",
          "type": "string"
        },
        {
          "internalType": "string",
          "name": "_symbol",
          "type": "string"
        }
      ],
      "name": "createToken",
      "outputs": [],
      "stateMutability": "nonpayable",
      "type": "function"
    },
    {
      "inputs": [
        {
          "internalType": "address",
          "name": "_tokenA",
          "type": "address"
        },
        {
          "internalType": "address",
          "name": "_tokenB",
          "type": "address"
        }
      ],
      "name": "getLP",
      "outputs": [
        {
          "internalType": "address",
          "name": "",
          "type": "address"
        }
      ],
      "stateMutability": "view",
      "type": "function"
    },
    {
      "inputs": [
        {
          "internalType": "contract IERC20",
          "name": "_tokenA",
          "type": "address"
        },
        {
          "internalType": "contract IERC20",
          "name": "_tokenB",
          "type": "address"
        }
      ],
      "name": "minPath",
      "outputs": [
        {
          "internalType": "address[]",
          "name": "",
          "type": "address[]"
        }
      ],
      "stateMutability": "nonpayable",
      "type": "function"
    },
    {
      "inputs": [],
      "name": "myTokens",
      "outputs": [
        {
          "internalType": "string[]",
          "name": "",
          "type": "string[]"
        },
        {
          "internalType": "string[]",
          "name": "",
          "type": "string[]"
        },
        {
          "internalType": "uint256[]",
          "name": "",
          "type": "uint256[]"
        }
      ],
      "stateMutability": "view",
      "type": "function"
    },
    {
      "inputs": [
        {
          "internalType": "address",
          "name": "",
          "type": "address"
        },
        {
          "internalType": "address",
          "name": "",
          "type": "address"
        }
      ],
      "name": "pools",
      "outputs": [
        {
          "internalType": "address",
          "name": "",
          "type": "address"
        }
      ],
      "stateMutability": "view",
      "type": "function"
    },
    {
      "inputs": [
        {
          "internalType": "address",
          "name": "",
          "type": "address"
        }
      ],
      "name": "previous",
      "outputs": [
        {
          "internalType": "address",
          "name": "",
          "type": "address"
        }
      ],
      "stateMutability": "view",
      "type": "function"
    },
    {
      "inputs": [
        {
          "internalType": "contract IERC20",
          "name": "_tokenIn",
          "type": "address"
        },
        {
          "internalType": "contract IERC20",
          "name": "_tokenOut",
          "type": "address"
        },
        {
          "internalType": "uint256",
          "name": "_amountIn",
          "type": "uint256"
        }
      ],
      "name": "swap",
      "outputs": [],
      "stateMutability": "nonpayable",
      "type": "function"
    },
    {
      "inputs": [
        {
          "internalType": "address",
          "name": "_tokenA",
          "type": "address"
        },
        {
          "internalType": "address",
          "name": "_tokenB",
          "type": "address"
        }
      ],
      "name": "testLPs",
      "outputs": [],
      "stateMutability": "nonpayable",
      "type": "function"
    },
    {
      "inputs": [
        {
          "internalType": "address",
          "name": "_tokenA",
          "type": "address"
        },
        {
          "internalType": "address",
          "name": "_tokenB",
          "type": "address"
        }
      ],
      "name": "testMinPath",
      "outputs": [],
      "stateMutability": "nonpayable",
      "type": "function"
    },
    {
      "inputs": [
        {
          "internalType": "uint256",
          "name": "",
          "type": "uint256"
        }
      ],
      "name": "tokens",
      "outputs": [
        {
          "internalType": "address",
          "name": "",
          "type": "address"
        }
      ],
      "stateMutability": "view",
      "type": "function"
    },
    {
      "inputs": [
        {
          "internalType": "address",
          "name": "",
          "type": "address"
        }
      ],
      "name": "visited",
      "outputs": [
        {
          "internalType": "bool",
          "name": "",
          "type": "bool"
        }
      ],
      "stateMutability": "view",
      "type": "function"
    }
  ],
  "bytecode": "0x60806040523480156200001157600080fd5b5060405162004267380380620042678339810160408190526200003491620000c7565b6001600160a01b038116156200006557600580546001600160a01b0319166001600160a01b038316179055620000b2565b6040516200007390620000b9565b604051809103906000f08015801562000090573d6000803e3d6000fd5b50600580546001600160a01b0319166001600160a01b03929092169190911790555b50620000f9565b6103f58062003e7283390190565b600060208284031215620000da57600080fd5b81516001600160a01b0381168114620000f257600080fd5b9392505050565b613d6980620001096000396000f3fe60806040523480156200001157600080fd5b5060043610620000f15760003560e01c80636ccbdcb9116200009757806396632e57116200006e57806396632e571462000249578063b1037e781462000282578063d48bfca71462000299578063df791e5014620002b057600080fd5b80636ccbdcb914620001d4578063901754d714620001fa578063949e8acd146200022e57600080fd5b80634f64b2be11620000cc5780634f64b2be146200018f578063568dc6c414620001a65780636404498714620001bd57600080fd5b80630e89324e14620000f657806330d28aca1462000131578063472c68361462000176575b600080fd5b6200011c6200010736600462001799565b60026020526000908152604090205460ff1681565b60405190151581526020015b60405180910390f35b6200015d6200014236600462001799565b6003602052600090815260409020546001600160a01b031681565b6040516001600160a01b03909116815260200162000128565b6200018d62000187366004620017c0565b620002c7565b005b6200015d620001a0366004620017fe565b62000345565b6200015d620001b7366004620017c0565b62000370565b6200018d620001ce366004620017c0565b620004f2565b620001eb620001e5366004620017c0565b620005e9565b60405162000128919062001818565b6200015d6200020b366004620017c0565b60006020818152928152604080822090935290815220546001600160a01b031681565b6200023862000664565b604051620001289392919062001919565b6200015d6200025a366004620017c0565b6001600160a01b03918216600090815260208181526040808320938516835292905220541690565b6200018d6200029336600462001a5c565b6200097c565b6200018d620002aa36600462001799565b62000c0e565b6200018d620002c136600462001ad0565b62000cb6565b6000620002d58383620005e9565b905060005b81518110156200033f57818181518110620002f957620002f962001b16565b60200260200101516001600160a01b03167fb0415b9aa325d80699a5dcb558346eeefbff8936a3ad0435d364eafa8068574e60405160405180910390a2600101620002da565b50505050565b600181815481106200035657600080fd5b6000918252602090912001546001600160a01b0316905081565b6001600160a01b0380831660009081526020818152604080832084861684529091528120549091849184911615620003ef5760405162461bcd60e51b815260206004820152601160248201527f4c5020616c72656164792065786973747300000000000000000000000000000060448201526064015b60405180910390fd5b60008585604051620004019062001764565b6001600160a01b03928316815291166020820152604001604051809103906000f08015801562000435573d6000803e3d6000fd5b506001600160a01b038088166000818152602081815260408083208b86168452825280832080549587166001600160a01b0319968716811790915583835281842094845293909152902080549092161790559050620004948662000c0e565b6200049f8562000c0e565b846001600160a01b0316866001600160a01b0316826001600160a01b03167f4c5abb8a6d68d66f3ed3655d1b09b248f4aac7d992d8af6c182d4bd39523fa1b60405160405180910390a495945050505050565b6000620005008383620005e9565b905060005b81518110156200056a5781818151811062000524576200052462001b16565b60200260200101516001600160a01b03167fb0415b9aa325d80699a5dcb558346eeefbff8936a3ad0435d364eafa8068574e60405160405180910390a260010162000505565b506000620005788262001038565b905060005b8151811015620005e2578181815181106200059c576200059c62001b16565b60200260200101516001600160a01b03167f202e15f0f7ba0fa9a7011bff45053dc86799d6db5ab9309ee5f1f28468f0313d60405160405180910390a26001016200057d565b5050505050565b6060600062000619848460006001600260036004600560009054906101000a90046001600160a01b03166200118d565b9050806040516200062b919062001b2c565b604051908190038120907fa035ecc582959b4bb1401c28c12f5edef71a037a08806661efc4ccdee3fec95c90600090a290505b92915050565b6060806060600060018054905067ffffffffffffffff8111156200068c576200068c6200198b565b604051908082528060200260200182016040528015620006c157816020015b6060815260200190600190039081620006ab5790505b5060015490915060009067ffffffffffffffff811115620006e657620006e66200198b565b6040519080825280602002602001820160405280156200071b57816020015b6060815260200190600190039081620007055790505b5060015490915060009067ffffffffffffffff8111156200074057620007406200198b565b6040519080825280602002602001820160405280156200076a578160200160208202803683370190505b50905060005b6001548110156200096f5760006001828154811062000793576200079362001b16565b60009182526020822001546040517f70a082310000000000000000000000000000000000000000000000000000000081523360048201526001600160a01b03909116925082906370a0823190602401602060405180830381865afa15801562000800573d6000803e3d6000fd5b505050506040513d601f19601f8201168201806040525081019062000826919062001b6d565b905080156200096457816001600160a01b03166306fdde036040518163ffffffff1660e01b8152600401600060405180830381865afa1580156200086e573d6000803e3d6000fd5b505050506040513d6000823e601f3d908101601f1916820160405262000898919081019062001b87565b868481518110620008ad57620008ad62001b16565b6020026020010181905250816001600160a01b03166395d89b416040518163ffffffff1660e01b8152600401600060405180830381865afa158015620008f7573d6000803e3d6000fd5b505050506040513d6000823e601f3d908101601f1916820160405262000921919081019062001b87565b85848151811062000936576200093662001b16565b60200260200101819052508084848151811062000957576200095762001b16565b6020026020010181815250505b505060010162000770565b5091959094509092509050565b8160005b60015481101562000ace57600060018281548110620009a357620009a362001b16565b600091825260209182902001546040516001600160a01b039091169250620009ce9185910162001c07565b60405160208183030381529060405280519060200120816001600160a01b03166306fdde036040518163ffffffff1660e01b8152600401600060405180830381865afa15801562000a23573d6000803e3d6000fd5b505050506040513d6000823e601f3d908101601f1916820160405262000a4d919081019062001b87565b60405160200162000a5f919062001c07565b604051602081830303815290604052805190602001200362000ac45760405162461bcd60e51b815260206004820152601460248201527f546f6b656e20616c7265616479206578697374730000000000000000000000006044820152606401620003e6565b5060010162000980565b506000848484600160405162000ae49062001772565b62000af3949392919062001c25565b604051809103906000f08015801562000b10573d6000803e3d6000fd5b506040517f5f459e9d0000000000000000000000000000000000000000000000000000000081523360048201529091506001600160a01b03821690635f459e9d90602401600060405180830381600087803b15801562000b6f57600080fd5b505af115801562000b84573d6000803e3d6000fd5b5050505062000b938162000c0e565b8260405162000ba3919062001c07565b60405180910390208460405162000bbb919062001c07565b6040518091039020826001600160a01b03167f75d1eb2d61d7e210835bc16e78ac4d0e4f905c108a81852a6b68c4d46b4f40f38860405162000bff91815260200190565b60405180910390a45050505050565b60005b60015481101562000c6457816001600160a01b03166001828154811062000c3c5762000c3c62001b16565b6000918252602090912001546001600160a01b03160362000c5b575050565b60010162000c11565b506001805480820182556000919091527fb10e2d527612073b26eecdfd717e6a320cf44b4afac2b0732d9fcbe2b7fa0cf60180546001600160a01b0319166001600160a01b0392909216919091179055565b6001600160a01b038381166000908152602081815260408083208685168452909152902054161562000df8576001600160a01b03838116600081815260208181526040808320878616845290915290819020549051631b0d0bdb60e01b81523360048201529216602483018190526044830184905291631b0d0bdb906064016020604051808303816000875af115801562000d55573d6000803e3d6000fd5b505050506040513d601f19601f8201168201806040525081019062000d7b919062001c68565b50604051630df791e560e41b81523360048201526001600160a01b0385811660248301526044820184905282169063df791e50906064016020604051808303816000875af115801562000dd2573d6000803e3d6000fd5b505050506040513d601f19601f82011682018060405250810190620005e2919062001b6d565b600062000e068484620005e9565b9050600081511162000e5b5760405162461bcd60e51b815260206004820152601c60248201527f4e6f207061746820666f756e64206265747765656e20746f6b656e73000000006044820152606401620003e6565b600062000e688262001038565b9050828560005b83518110156200102e57600084828151811062000e905762000e9062001b16565b6020908102919091010151604051631b0d0bdb60e01b81523360048201526001600160a01b0380831660248301526044820187905291925090841690631b0d0bdb906064016020604051808303816000875af115801562000ef5573d6000803e3d6000fd5b505050506040513d601f19601f8201168201806040525081019062000f1b919062001c68565b50604051630df791e560e41b81523360048201526001600160a01b0384811660248301526044820186905282169063df791e50906064016020604051808303816000875af115801562000f72573d6000803e3d6000fd5b505050506040513d601f19601f8201168201806040525081019062000f98919062001b6d565b6040517f382ee74a0000000000000000000000000000000000000000000000000000000081526001600160a01b0385811660048301529195509082169063382ee74a90602401602060405180830381865afa15801562000ffc573d6000803e3d6000fd5b505050506040513d601f19601f8201168201806040525081019062001022919062001c8c565b92505060010162000e6f565b5050505050505050565b60606000600183516200104c919062001cc2565b67ffffffffffffffff8111156200106757620010676200198b565b60405190808252806020026020018201604052801562001091578160200160208202803683370190505b50905060005b60018451620010a7919062001cc2565b8110156200118657600080858381518110620010c757620010c762001b16565b60200260200101516001600160a01b03166001600160a01b0316815260200190815260200160002060008583600162001101919062001cd8565b8151811062001114576200111462001b16565b60200260200101516001600160a01b03166001600160a01b0316815260200190815260200160002060009054906101000a90046001600160a01b031682828151811062001165576200116562001b16565b6001600160a01b039092166020928302919091019091015260010162001097565b5092915050565b6060816001600160a01b03166352efea6e6040518163ffffffff1660e01b8152600401600060405180830381600087803b158015620011cb57600080fd5b505af1158015620011e0573d6000803e3d6000fd5b50506040516389b09de760e01b81526001600160a01b038c81166004830152851692506389b09de79150602401600060405180830381600087803b1580156200122857600080fd5b505af11580156200123d573d6000803e3d6000fd5b505050506001600160a01b038916600090815260208590526040812080546001600160a01b03191690555b826001600160a01b031663f2a75fe46040518163ffffffff1660e01b8152600401602060405180830381865afa158015620012a7573d6000803e3d6000fd5b505050506040513d601f19601f82011682018060405250810190620012cd919062001c68565b620014f5576000836001600160a01b031663a4ece52c6040518163ffffffff1660e01b81526004016020604051808303816000875af115801562001315573d6000803e3d6000fd5b505050506040513d601f19601f820116820180604052508101906200133b919062001c8c565b9050896001600160a01b0316816001600160a01b03160362001362576001915050620014f5565b6001600160a01b03811660009081526020889052604090205460ff16156200138b575062001268565b6001600160a01b0381166000818152602089815260408220805460ff19166001908117909155885490810189558883529082200180546001600160a01b0319169092179091555b8854811015620014ed576000898281548110620013f357620013f362001b16565b60009182526020808320909101546001600160a01b0386811684528e8352604080852092821680865292909352919092205491925016158015906200145157506001600160a01b038116600090815260208a9052604090205460ff16155b15620014e3576040516389b09de760e01b81526001600160a01b0382811660048301528716906389b09de790602401600060405180830381600087803b1580156200149b57600080fd5b505af1158015620014b0573d6000803e3d6000fd5b505050506001600160a01b03818116600090815260208a90526040902080546001600160a01b0319169185169190911790555b50600101620013d2565b505062001268565b806200151257505060408051600081526020810190915262001533565b6000620015218a89886200153f565b90506200152f8786620016cb565b9150505b98975050505050505050565b815460609060009067ffffffffffffffff8111156200156257620015626200198b565b6040519080825280602002602001820160405280156200158c578160200160208202803683370190505b5090508460005b6001600160a01b03821615620015fc57818382620015b18162001cee565b935081518110620015c657620015c662001b16565b6001600160a01b039283166020918202929092018101919091529281166000908152928690526040909220549091169062001593565b60008167ffffffffffffffff8111156200161a576200161a6200198b565b60405190808252806020026020018201604052801562001644578160200160208202803683370190505b50905060005b82811015620016bf5784816200166260018662001cc2565b6200166e919062001cc2565b8151811062001681576200168162001b16565b60200260200101518282815181106200169e576200169e62001b16565b6001600160a01b03909216602092830291909101909101526001016200164a565b50979650505050505050565b60005b81548110156200175f576000836000848481548110620016f257620016f262001b16565b6000918252602080832091909101546001600160a01b031683528201929092526040019020805460ff191691151591909117905581548290829081106200173d576200173d62001b16565b600091825260209091200180546001600160a01b0319169055600101620016ce565b505050565b6111828062001d0b83390190565b610ea78062002e8d83390190565b6001600160a01b03811681146200179657600080fd5b50565b600060208284031215620017ac57600080fd5b8135620017b98162001780565b9392505050565b60008060408385031215620017d457600080fd5b8235620017e18162001780565b91506020830135620017f38162001780565b809150509250929050565b6000602082840312156200181157600080fd5b5035919050565b6020808252825182820181905260009190848201906040850190845b818110156200185b5783516001600160a01b03168352928401929184019160010162001834565b50909695505050505050565b60005b83811015620018845781810151838201526020016200186a565b50506000910152565b60008151808452620018a781602086016020860162001867565b601f01601f19169290920160200192915050565b60008282518085526020808601955060208260051b8401016020860160005b848110156200190c57601f19868403018952620018f98383516200188d565b98840198925090830190600101620018da565b5090979650505050505050565b6060815260006200192e6060830186620018bb565b60208382036020850152620019448287620018bb565b84810360408601528551808252602080880194509091019060005b818110156200197d578451835293830193918301916001016200195f565b509098975050505050505050565b634e487b7160e01b600052604160045260246000fd5b604051601f8201601f1916810167ffffffffffffffff81118282101715620019cd57620019cd6200198b565b604052919050565b600067ffffffffffffffff821115620019f257620019f26200198b565b50601f01601f191660200190565b600082601f83011262001a1257600080fd5b813562001a2962001a2382620019d5565b620019a1565b81815284602083860101111562001a3f57600080fd5b816020850160208301376000918101602001919091529392505050565b60008060006060848603121562001a7257600080fd5b83359250602084013567ffffffffffffffff8082111562001a9257600080fd5b62001aa08783880162001a00565b9350604086013591508082111562001ab757600080fd5b5062001ac68682870162001a00565b9150509250925092565b60008060006060848603121562001ae657600080fd5b833562001af38162001780565b9250602084013562001b058162001780565b929592945050506040919091013590565b634e487b7160e01b600052603260045260246000fd5b815160009082906020808601845b8381101562001b615781516001600160a01b03168552938201939082019060010162001b3a565b50929695505050505050565b60006020828403121562001b8057600080fd5b5051919050565b60006020828403121562001b9a57600080fd5b815167ffffffffffffffff81111562001bb257600080fd5b8201601f8101841362001bc457600080fd5b805162001bd562001a2382620019d5565b81815285602083850101111562001beb57600080fd5b62001bfe82602083016020860162001867565b95945050505050565b6000825162001c1b81846020870162001867565b9190910192915050565b84815260806020820152600062001c4060808301866200188d565b828103604084015262001c5481866200188d565b915050821515606083015295945050505050565b60006020828403121562001c7b57600080fd5b81518015158114620017b957600080fd5b60006020828403121562001c9f57600080fd5b8151620017b98162001780565b634e487b7160e01b600052601160045260246000fd5b818103818111156200065e576200065e62001cac565b808201808211156200065e576200065e62001cac565b60006001820162001d035762001d0362001cac565b506001019056fe608060405234801561001057600080fd5b5060405161118238038061118283398101604081905261002f91610082565b600080546001600160a01b039384166001600160a01b031991821617825560018054939094169216919091179091556005556100b5565b80516001600160a01b038116811461007d57600080fd5b919050565b6000806040838503121561009557600080fd5b61009e83610066565b91506100ac60208401610066565b90509250929050565b6110be806100c46000396000f3fe608060405234801561001057600080fd5b50600436106101515760003560e01c806398d5fdca116100cd578063b70644b611610081578063dc5fa6c511610066578063dc5fa6c5146102c5578063df791e50146102ce578063ef6283d9146102e157600080fd5b8063b70644b61461029f578063b7be2498146102b257600080fd5b8063ae0a3ad0116100b2578063ae0a3ad014610259578063b17b658d1461026c578063b614c4771461028c57600080fd5b806398d5fdca1461023e5780639c8f9f231461024657600080fd5b8063382ee74a116101245780635f64b55b116101095780635f64b55b146101e55780638472325e146101f8578063923b511b1461022157600080fd5b8063382ee74a146101bd57806351c6590a146101d057600080fd5b80630fc63d101461015657806319e36f3b1461018657806333fdbbe51461019d57806337e3806a146101a8575b600080fd5b600054610169906001600160a01b031681565b6040516001600160a01b0390911681526020015b60405180910390f35b61018f60035481565b60405190815260200161017d565b61018f633b9aca0081565b3360009081526004602052604090205461018f565b6101696101cb366004610f2c565b6102ea565b6101e36101de366004610f49565b6103a1565b005b600154610169906001600160a01b031681565b61018f610206366004610f2c565b6001600160a01b031660009081526004602052604090205490565b610229610573565b6040805192835260208301919091520161017d565b61018f610596565b6101e3610254366004610f49565b6105bc565b6101e3610267366004610f62565b610850565b61018f61027a366004610f2c565b60046020526000908152604090205481565b61022961029a366004610f49565b610a30565b61018f6102ad366004610f49565b610a71565b61018f6102c0366004610f84565b610a94565b61018f60025481565b61018f6102dc366004610fb0565b610b70565b61018f60055481565b6000805482906001600160a01b038083169116148061031657506001546001600160a01b038281169116145b6103675760405162461bcd60e51b815260206004820152601560248201527f496e76616c696420746f6b656e2061646472657373000000000000000000000060448201526064015b60405180910390fd5b6000546001600160a01b0384811691161461038d576000546001600160a01b031661039a565b6001546001600160a01b03165b9392505050565b60006103ac82610a71565b6000546040516323b872dd60e01b8152336004820152306024820152604481018590529192506001600160a01b0316906323b872dd906064016020604051808303816000875af1158015610404573d6000803e3d6000fd5b505050506040513d601f19601f820116820180604052508101906104289190610ff1565b506001546040516323b872dd60e01b8152336004820152306024820152604481018390526001600160a01b03909116906323b872dd906064016020604051808303816000875af1158015610480573d6000803e3d6000fd5b505050506040513d601f19601f820116820180604052508101906104a49190610ff1565b5060006104b083610f01565b905082600260008282546104c49190611029565b9250508190555081600360008282546104dd9190611029565b90915550503360009081526004602052604081208054839290610501908490611029565b92505081905550806005600082825461051a9190611029565b909155505060015460005460408051868152602081018690526001600160a01b0393841693909216917fbd7b85fedbc1aa7803274a3777195d333498edd4cc00c3f998c9233b4aab0897910160405180910390a3505050565b33600090815260046020526040812054819061058e90610a30565b915091509091565b6000600254633b9aca006003546105ad919061103c565b6105b79190611053565b905090565b806000806105c983610a30565b9150915060025482111580156105e157506003548111155b61062d5760405162461bcd60e51b815260206004820152601660248201527f496e73756666696369656e74206c697175696469747900000000000000000000604482015260640161035e565b33600081815260046020526040902054859081111561068e5760405162461bcd60e51b815260206004820152601d60248201527f496e73756666696369656e74206c697175696469747920746f6b656e73000000604482015260640161035e565b60008061069a88610a30565b60005460405163a9059cbb60e01b8152336004820152602481018490529294509092506001600160a01b03169063a9059cbb906044016020604051808303816000875af11580156106ef573d6000803e3d6000fd5b505050506040513d601f19601f820116820180604052508101906107139190610ff1565b5060015460405163a9059cbb60e01b8152336004820152602481018390526001600160a01b039091169063a9059cbb906044016020604051808303816000875af1158015610765573d6000803e3d6000fd5b505050506040513d601f19601f820116820180604052508101906107899190610ff1565b50816002600082825461079c9190611075565b9250508190555080600360008282546107b59190611075565b9250508190555087600560008282546107ce9190611075565b909155505033600090815260046020526040812080548a92906107f2908490611075565b909155505060015460005460408051858152602081018590526001600160a01b0393841693909216917fdf820f8e0eaac6e7b59d9e7b24d666d41534675c38a6681103c8ba957e0f5374910160405180910390a35050505050505050565b6002541580156108605750600354155b6108ac5760405162461bcd60e51b815260206004820152601360248201527f416c726561647920696e697469616c697a656400000000000000000000000000604482015260640161035e565b6000546040516323b872dd60e01b8152336004820152306024820152604481018490526001600160a01b03909116906323b872dd906064016020604051808303816000875af1158015610903573d6000803e3d6000fd5b505050506040513d601f19601f820116820180604052508101906109279190610ff1565b506001546040516323b872dd60e01b8152336004820152306024820152604481018390526001600160a01b03909116906323b872dd906064016020604051808303816000875af115801561097f573d6000803e3d6000fd5b505050506040513d601f19601f820116820180604052508101906109a39190610ff1565b5060028290556003819055633b9aca006109bd828461103c565b6109c7919061103c565b600581905533600090815260046020908152604080832093909355600154915483518681529182018590526001600160a01b03928316939216917fbd7b85fedbc1aa7803274a3777195d333498edd4cc00c3f998c9233b4aab0897910160405180910390a35050565b60008060055460025484610a44919061103c565b610a4e9190611053565b600554600354610a5e908661103c565b610a689190611053565b91509150915091565b600060025460035483610a84919061103c565b610a8e9190611053565b92915050565b6000805483906001600160a01b0380831691161480610ac057506001546001600160a01b038281169116145b610b0c5760405162461bcd60e51b815260206004820152601560248201527f496e76616c696420746f6b656e20616464726573730000000000000000000000604482015260640161035e565b6000546001600160a01b0390811690851603610b4e5782600254610b309190611029565b600354610b3d908561103c565b610b479190611053565b9150610b69565b82600354610b5c9190611029565b600254610b3d908561103c565b5092915050565b600082826000610b808383610a94565b905060008111610bd25760405162461bcd60e51b815260206004820152601360248201527f496e76616c6964207377617020616d6f756e7400000000000000000000000000604482015260640161035e565b6000610bde8787610a94565b90506001600160a01b038816610bf2573397505b6000546001600160a01b0390811690881603610d85576000546040516323b872dd60e01b81526001600160a01b038a8116600483015230602483015260448201899052909116906323b872dd906064016020604051808303816000875af1158015610c61573d6000803e3d6000fd5b505050506040513d601f19601f82011682018060405250810190610c859190610ff1565b5060015460405163a9059cbb60e01b81526001600160a01b038a81166004830152602482018490529091169063a9059cbb906044016020604051808303816000875af1158015610cd9573d6000803e3d6000fd5b505050506040513d601f19601f82011682018060405250810190610cfd9190610ff1565b508560026000828254610d109190611029565b925050819055508060036000828254610d299190611075565b909155505060015460005460408051898152602081018590526001600160a01b0393841693909216917fa078c4190abe07940190effc1846be0ccf03ad6007bc9e93f9697d0b460befbb91015b60405180910390a39350610ef7565b6001546040516323b872dd60e01b81526001600160a01b038a8116600483015230602483015260448201899052909116906323b872dd906064016020604051808303816000875af1158015610dde573d6000803e3d6000fd5b505050506040513d601f19601f82011682018060405250810190610e029190610ff1565b5060005460405163a9059cbb60e01b81526001600160a01b038a81166004830152602482018490529091169063a9059cbb906044016020604051808303816000875af1158015610e56573d6000803e3d6000fd5b505050506040513d601f19601f82011682018060405250810190610e7a9190610ff1565b508560036000828254610e8d9190611029565b925050819055508060026000828254610ea69190611075565b909155505060005460015460408051898152602081018590526001600160a01b0393841693909216917fa078c4190abe07940190effc1846be0ccf03ad6007bc9e93f9697d0b460befbb9101610d76565b5050509392505050565b600060025482600554610a84919061103c565b6001600160a01b0381168114610f2957600080fd5b50565b600060208284031215610f3e57600080fd5b813561039a81610f14565b600060208284031215610f5b57600080fd5b5035919050565b60008060408385031215610f7557600080fd5b50508035926020909101359150565b60008060408385031215610f9757600080fd5b8235610fa281610f14565b946020939093013593505050565b600080600060608486031215610fc557600080fd5b8335610fd081610f14565b92506020840135610fe081610f14565b929592945050506040919091013590565b60006020828403121561100357600080fd5b8151801515811461039a57600080fd5b634e487b7160e01b600052601160045260246000fd5b80820180821115610a8e57610a8e611013565b8082028115828204841417610a8e57610a8e611013565b60008261107057634e487b7160e01b600052601260045260246000fd5b500490565b81810381811115610a8e57610a8e61101356fea2646970667358221220a71914437d3a05f9c85e7cfdbbf5380307b722b0eeec57652115d03217ef005664736f6c6343000818003360806040526004805460ff191660121790553480156200001e57600080fd5b5060405162000ea738038062000ea783398101604081905262000041916200028e565b83838360008311620000ae5760405162461bcd60e51b815260206004820152602b60248201527f496e697469616c20737570706c792073686f756c64206265206120706f73697460448201526a34bb329034b73a32b3b2b960a91b60648201526084015b60405180910390fd5b6000825111620001015760405162461bcd60e51b815260206004820152601860248201527f4e616d652073686f756c64206e6f7420626520656d70747900000000000000006044820152606401620000a5565b6000815111620001545760405162461bcd60e51b815260206004820152601a60248201527f53796d626f6c2073686f756c64206e6f7420626520656d7074790000000000006044820152606401620000a5565b60008790556003620001678782620003ac565b506005620001768682620003ac565b5083156200019657600680546001600160a01b03191633179055620001b9565b600680546001600160a01b03191690556000805433825260016020526040909120555b5050505050505062000478565b634e487b7160e01b600052604160045260246000fd5b600082601f830112620001ee57600080fd5b81516001600160401b03808211156200020b576200020b620001c6565b604051601f8301601f19908116603f01168101908282118183101715620002365762000236620001c6565b81604052838152602092508660208588010111156200025457600080fd5b600091505b8382101562000278578582018301518183018401529082019062000259565b6000602085830101528094505050505092915050565b60008060008060808587031215620002a557600080fd5b845160208601519094506001600160401b0380821115620002c557600080fd5b620002d388838901620001dc565b94506040870151915080821115620002ea57600080fd5b50620002f987828801620001dc565b925050606085015180151581146200031057600080fd5b939692955090935050565b600181811c908216806200033057607f821691505b6020821081036200035157634e487b7160e01b600052602260045260246000fd5b50919050565b601f821115620003a7576000816000526020600020601f850160051c81016020861015620003825750805b601f850160051c820191505b81811015620003a3578281556001016200038e565b5050505b505050565b81516001600160401b03811115620003c857620003c8620001c6565b620003e081620003d984546200031b565b8462000357565b602080601f831160018114620004185760008415620003ff5750858301515b600019600386901b1c1916600185901b178555620003a3565b600085815260208120601f198616915b82811015620004495788860151825594840194600190910190840162000428565b5085821015620004685787850151600019600388901b60f8161c191681555b5050505050600190811b01905550565b610a1f80620004886000396000f3fe608060405234801561001057600080fd5b50600436106100d45760003560e01c80635f459e9d11610081578063a9059cbb1161005b578063a9059cbb146101b7578063dd62ed3e146101ca578063f887ea401461020357600080fd5b80635f459e9d1461017157806370a082311461018657806395d89b41146101af57600080fd5b80631b0d0bdb116100b25780631b0d0bdb1461012c57806323b872dd1461013f578063313ce5671461015257600080fd5b806306fdde03146100d9578063095ea7b3146100f757806318160ddd1461011a575b600080fd5b6100e161022e565b6040516100ee919061084d565b60405180910390f35b61010a6101053660046108b8565b6102bc565b60405190151581526020016100ee565b6000545b6040519081526020016100ee565b61010a61013a3660046108e2565b610329565b61010a61014d3660046108e2565b61045e565b60045461015f9060ff1681565b60405160ff90911681526020016100ee565b61018461017f36600461091e565b610649565b005b61011e61019436600461091e565b6001600160a01b031660009081526001602052604090205490565b6100e1610730565b61010a6101c53660046108b8565b61073d565b61011e6101d8366004610940565b6001600160a01b03918216600090815260026020908152604080832093909416825291909152205490565b600654610216906001600160a01b031681565b6040516001600160a01b0390911681526020016100ee565b6003805461023b90610973565b80601f016020809104026020016040519081016040528092919081815260200182805461026790610973565b80156102b45780601f10610289576101008083540402835291602001916102b4565b820191906000526020600020905b81548152906001019060200180831161029757829003601f168201915b505050505081565b3360008181526002602090815260408083206001600160a01b038716808552925280832085905551919290917f8c5be1e5ebec7d5bd14f71427d1e84f3dd0314c0f7b2291e5b200ac8c7c3b925906103179086815260200190565b60405180910390a35060015b92915050565b600654604080517f4f6e6c792074686520726f757465722063616e2063616c6c20746869732066756020820152663731ba34b7b70560c91b918101919091526702937baba32b91d160c51b6047820152606082811b6bffffffffffffffffffffffff19908116604f84015267521b0b63632b91d160bd1b6063840152339182901b16606c8301526000926001600160a01b03161490608001604051602081830303815290604052906103f75760405162461bcd60e51b81526004016103ee919061084d565b60405180910390fd5b506001600160a01b0384811660008181526002602090815260408083209488168084529482529182902086905590518581527f8c5be1e5ebec7d5bd14f71427d1e84f3dd0314c0f7b2291e5b200ac8c7c3b925910160405180910390a35060019392505050565b6001600160a01b038316600090815260016020526040812054849083908111156104ca5760405162461bcd60e51b815260206004820152601360248201527f496e73756666696369656e742066756e6473210000000000000000000000000060448201526064016103ee565b6001600160a01b03861660009081526002602090815260408083203380855292529091205487919086908111156105435760405162461bcd60e51b815260206004820152601760248201527f496e73756666696369656e7420616c6c6f77616e63652100000000000000000060448201526064016103ee565b6001600160a01b0389166000908152600160205260409020546105679088906109c3565b6001600160a01b038a16600090815260016020908152604080832093909355600281528282203383529052205461059f9088906109c3565b6001600160a01b03808b166000908152600260209081526040808320338452825280832094909455918b168152600190915220546105de9088906109d6565b6001600160a01b03808a1660008181526001602052604090819020939093559151908b16907fddf252ad1be2c89b69c2b068fc378daa952ba7f163c4a11628f55a4df523b3ef90610632908b815260200190565b60405180910390a350600198975050505050505050565b600654604051336001600160a01b03909216828114926106e5926020017f4f6e6c792074686520726f757465722063616e2063616c6c20746869732066758152663731ba34b7b70560c91b60208201526702937baba32b91d160c51b6027820152606092831b6bffffffffffffffffffffffff19908116602f83015267521b0b63632b91d160bd1b604383015291831b909116604c8201520190565b604051602081830303815290604052906107125760405162461bcd60e51b81526004016103ee919061084d565b50600080546001600160a01b03909216815260016020526040902055565b6005805461023b90610973565b3360008181526001602052604081205490919083908111156107a15760405162461bcd60e51b815260206004820152601360248201527f496e73756666696369656e742066756e6473210000000000000000000000000060448201526064016103ee565b336000908152600160205260409020546107bc9085906109c3565b33600090815260016020526040808220929092556001600160a01b038716815220546107e99085906109d6565b6001600160a01b0386166000818152600160205260409081902092909255905133907fddf252ad1be2c89b69c2b068fc378daa952ba7f163c4a11628f55a4df523b3ef9061083a9088815260200190565b60405180910390a3506001949350505050565b60006020808352835180602085015260005b8181101561087b5785810183015185820160400152820161085f565b506000604082860101526040601f19601f8301168501019250505092915050565b80356001600160a01b03811681146108b357600080fd5b919050565b600080604083850312156108cb57600080fd5b6108d48361089c565b946020939093013593505050565b6000806000606084860312156108f757600080fd5b6109008461089c565b925061090e6020850161089c565b9150604084013590509250925092565b60006020828403121561093057600080fd5b6109398261089c565b9392505050565b6000806040838503121561095357600080fd5b61095c8361089c565b915061096a6020840161089c565b90509250929050565b600181811c9082168061098757607f821691505b6020821081036109a757634e487b7160e01b600052602260045260246000fd5b50919050565b634e487b7160e01b600052601160045260246000fd5b81810381811115610323576103236109ad565b80820180821115610323576103236109ad56fea26469706673582212209c76792903f7a315360e8111e9e4a7831cc7dd2db7d5b8dc35fec1e41ad9b6d364736f6c63430008180033a264697066735822122033b6b6577fb586bb217de4a4b1bf50f99d688f81f699ee7daadcdf032806c78064736f6c63430008180033608060405260018055600060025534801561001957600080fd5b506103cc806100296000396000f3fe608060405234801561001057600080fd5b50600436106100725760003560e01c806389b09de71161005057806389b09de7146100bc578063a4ece52c146100cf578063f2a75fe4146100d757600080fd5b80631f7b6d321461007757806352efea6e1461009257806359e02dd71461009c575b600080fd5b61007f6100ec565b6040519081526020015b60405180910390f35b61009a61010e565b005b6100a461016e565b6040516001600160a01b039091168152602001610089565b61009a6100ca3660046102f2565b6101e8565b6100a461023e565b60015460025460405191118152602001610089565b60006001546002546100fe9190610351565b61010990600161036a565b905090565b6001600254101561011b57565b60005b6002548111610162576000818152602081905260409020805473ffffffffffffffffffffffffffffffffffffffff191690558061015a8161037d565b91505061011e565b50600180556000600255565b600060015460025410156101c95760405162461bcd60e51b815260206004820152600e60248201527f517565756520697320656d70747900000000000000000000000000000000000060448201526064015b60405180910390fd5b506001546000908152602081905260409020546001600160a01b031690565b806000806002600081546101fb9061037d565b918290555081526020810191909152604001600020805473ffffffffffffffffffffffffffffffffffffffff19166001600160a01b039290921691909117905550565b600060015460025410156102945760405162461bcd60e51b815260206004820152600e60248201527f517565756520697320656d70747900000000000000000000000000000000000060448201526064016101c0565b50600180546000818152602081905260408120546001600160a01b03169290918291826102c08361037d565b9091555081526020810191909152604001600020805473ffffffffffffffffffffffffffffffffffffffff1916905590565b60006020828403121561030457600080fd5b81356001600160a01b038116811461031b57600080fd5b9392505050565b7f4e487b7100000000000000000000000000000000000000000000000000000000600052601160045260246000fd5b8181038181111561036457610364610322565b92915050565b8082018082111561036457610364610322565b60006001820161038f5761038f610322565b506001019056fea264697066735822122047fa887e0eb4ec90b66d57dd9d87a979d91bfc6b3014e219aba97c2d663d93e964736f6c63430008180033",
  "linkReferences": {},
  "deployedLinkReferences": {}
}