{
  "_format": "hh-sol-artifact-1",
  "contractName": "Queue",
  "sourceName": "contracts/Queue.sol",
  "abi": [
    {
      "inputs": [],
      "name": "clear",
      "outputs": [],
      "stateMutability": "nonpayable",
      "type": "function"
    },
    {
      "inputs": [],
      "name": "empty",
      "outputs": [
        {
          "internalType": "bool",
          "name": "",
          "type": "bool"
        }
      ],
      "stateMutability": "view",
      "type": "function"
    },
    {
      "inputs": [],
      "name": "length",
      "outputs": [
        {
          "internalType": "uint256",
          "name": "",
          "type": "uint256"
        }
      ],
      "stateMutability": "view",
      "type": "function"
    },
    {
      "inputs": [],
      "name": "peek",
      "outputs": [
        {
          "internalType": "address",
          "name": "data",
          "type": "address"
        }
      ],
      "stateMutability": "view",
      "type": "function"
    },
    {
      "inputs": [],
      "name": "pop",
      "outputs": [
        {
          "internalType": "address",
          "name": "data",
          "type": "address"
        }
      ],
      "stateMutability": "nonpayable",
      "type": "function"
    },
    {
      "inputs": [
        {
          "internalType": "address",
          "name": "data",
          "type": "address"
        }
      ],
      "name": "push",
      "outputs": [],
      "stateMutability": "nonpayable",
      "type": "function"
    }
  ],
  "bytecode": "0x608060405260018055600060025534801561001957600080fd5b506103cc806100296000396000f3fe608060405234801561001057600080fd5b50600436106100725760003560e01c806389b09de71161005057806389b09de7146100bc578063a4ece52c146100cf578063f2a75fe4146100d757600080fd5b80631f7b6d321461007757806352efea6e1461009257806359e02dd71461009c575b600080fd5b61007f6100ec565b6040519081526020015b60405180910390f35b61009a61010e565b005b6100a461016e565b6040516001600160a01b039091168152602001610089565b61009a6100ca3660046102f2565b6101e8565b6100a461023e565b60015460025460405191118152602001610089565b60006001546002546100fe9190610351565b61010990600161036a565b905090565b6001600254101561011b57565b60005b6002548111610162576000818152602081905260409020805473ffffffffffffffffffffffffffffffffffffffff191690558061015a8161037d565b91505061011e565b50600180556000600255565b600060015460025410156101c95760405162461bcd60e51b815260206004820152600e60248201527f517565756520697320656d70747900000000000000000000000000000000000060448201526064015b60405180910390fd5b506001546000908152602081905260409020546001600160a01b031690565b806000806002600081546101fb9061037d565b918290555081526020810191909152604001600020805473ffffffffffffffffffffffffffffffffffffffff19166001600160a01b039290921691909117905550565b600060015460025410156102945760405162461bcd60e51b815260206004820152600e60248201527f517565756520697320656d70747900000000000000000000000000000000000060448201526064016101c0565b50600180546000818152602081905260408120546001600160a01b03169290918291826102c08361037d565b9091555081526020810191909152604001600020805473ffffffffffffffffffffffffffffffffffffffff1916905590565b60006020828403121561030457600080fd5b81356001600160a01b038116811461031b57600080fd5b9392505050565b7f4e487b7100000000000000000000000000000000000000000000000000000000600052601160045260246000fd5b8181038181111561036457610364610322565b92915050565b8082018082111561036457610364610322565b60006001820161038f5761038f610322565b506001019056fea264697066735822122047fa887e0eb4ec90b66d57dd9d87a979d91bfc6b3014e219aba97c2d663d93e964736f6c63430008180033",
  "linkReferences": {},
  "deployedLinkReferences": {}
}